:020000040800F2
:1000000000C0002069700008D16D0008D96D00089B
:10001000E16D0008E96D0008F16D000800000000C6
:10002000000000000000000000000000F96D000862
:10003000056E000800000000116E00081D6E00082B
:10004000B1700008B1700008B1700008B17000080C
:10005000B1700008B1700008B1700008B1700008FC
:10006000B1700008B1700008B1700008B1700008EC
:10007000B1700008B1700008B1700008B1700008DC
:10008000B1700008B1700008B1700008B1700008CC
:10009000296E0008B17000083D6E0008B1700008BC
:1000A000B1700008B1700008B1700008B1700008AC
:1000B000B1700008B1700008B1700008B17000089C
:1000C000B1700008B1700008B1700008B17000088C
:1000D000B1700008B1700008B1700008B17000087C
:1000E000B1700008B1700008B1700008B17000086C
:1000F000B1700008B1700008B1700008B17000085C
:10010000B1700008B1700008B1700008B17000084B
:10011000B1700008B1700008516E0008B17000089D
:10012000B1700008B1700008B1700008B17000082B
:1001300000000000000000000000000000000000BF
:1001400000000000000000000000000000000000AF
:10015000000000000000000000000000000000009F
:10016000000000000000000000000000000000008F
:10017000000000000000000000000000000000007F
:10018000000000000000000000000000000000006F
:10019000000000000000000000000000000000005F
:1001A000000000000000000000000000000000004F
:1001B000000000000000000000000000000000003F
:1001C000000000000000000000000000000000002F
:1001D000000000000000000000000000000000001F
:0401E0005FF8E0F1F3
:1001E40010B5054C237833B9044B13B10448AFF36D
:1001F40000800123237010BD38040020000000009B
:10020400CCA1000808B5034B1BB103490348AFF365
:10021400008008BD000000003C040020CCA10008C0
:10022400034613F8012B002AFBD1181A0138704732
:1002340080B485B000AF78607B681B78FB73FB7B70
:1002440018461437BD4680BC704780B483B000AFF5
:1002540078600B46FB70FA787B681A7001231846A5
:100264000C37BD4680BC704780B483B000AF786063
:1002740039603A687B681A60042318460C37BD4617
:1002840080BC704780B483B000AF78607B68002B7B
:1002940002D07B681B8800E0002318460C37BD465B
:1002A40080BC704780B483B000AF786039607B68ED
:1002B400002B01D1052303E07B683A689A60002390
:1002C40018460C37BD4680BC704780B586B002AF77
:1002D400F8607A603B600B46FB72F97A3B680093E6
:1002E40004237A68F86801F08FFB03461846103738
:1002F400BD4680BD80B586B000AFF860B9607A6055
:100304003B60FB68002B0CD0FB681B7D002B08D1E5
:10031400BB68002B05D07B68032B02D93B68002BFC
:1003240001D109231AE0FB685B687B617B695B6A26
:10033400002B01D0002301E04FF000433B617B69B7
:1003440093F8283080333A6913433B613969B868BC
:10035400FFF78AFF3B6804221A6000231846183707
:10036400BD4680BD80B586B000AFF860B9607A60E4
:100374003B60FB68002B0FD0BB68002B0CD03B68A4
:10038400002B09D07B68032B03D8FB681B7D002B53
:1003940002D17B68002B01D109234CE0FB685B6828
:1003A4003B613B691B7F012B01D8092343E0FB68B8
:1003B4001B7D002B0BD13B6993F820301946B8689C
:1003C400FFF743FF3B6801221A60002333E0FB6818
:1003D4001A7D3B6993F820309A422BD83B695B7FA6
:1003E4001A46FB681B7DD31A9BB2FB82B7F9163001
:1003F400002B07DA3B691B7F1A46FB8A13449BB226
:10040400FB8207E0B7F916303A69127F934201DBA9
:10041400092310E03B699A69B7F91630DB001344ED
:100424001B681946B868FFF71FFF3B6804221A606F
:10043400002300E0192318461837BD4680BD80B557
:1004440086B000AFF860B9607A603B60FB68002B4F
:100454000CD0FB681B7D002B08D1BB68002B05D09A
:100464007B68012B02D13B68002B01D1092312E0E8
:10047400B868FFF7DDFE0346002B01D00F230AE026
:10048400FB685B687B617B69002283F820203B6802
:1004940001221A60002318461837BD4680BD0000AB
:1004A40080B588B002AFF860B9607A603B60002321
:1004B400FB75FB68002B1AD07B68002B17D03B68B8
:1004C400002B03D197F82030012B10D87B6A002B26
:1004D4000DD0BB68002B0AD097F83030002B06D023
:1004E40097F93030002B02DBFB6A002B02D14FF06E
:1004F400FF33A7E050220021F86809F021FAFB68D5
:10050400BA685A61002301220021786801F0F6FAE2
:100514000246FB68DA60FB68DB68002B0CD17B6B5E
:10052400002B06D07868FFF7ADFE03461A467B6BB6
:100534001A606FF00B0385E0FB68DB6800221A7019
:10054400FB683A689A61FB6897F820201A7707F1EC
:10055400100201230021786AFFF7B7FE0346BB753A
:1005640097F91630002B04D13A69384B1340002B0D
:1005740010D07B6B002B06D0786AFFF783FE03460E
:100584001A467B6B1A6097F91630002B02D06FF075
:100594000B0357E097F830309BB28033BB823B6942
:1005A400DB43DB0FDBB21A46FB685A62FB68FA686E
:1005B4001A63FB68264A5A63FB68264A9A63FB68F7
:1005C40030331946786AFFF76DFE0346BB7597F919
:1005D4001630002B0CD07B6B002B06D0786AFFF70B
:1005E40051FE03461A467B6B1A606FF00B0329E039
:1005F400FB6897F8302083F82820BA8A398D0023C5
:100604000193082300930023B86806F067F80246B4
:10061400FB68DA62FB68DB6A002B02D14FF0FF3320
:1006240010E0FB68FA681A64FB680B4A5A64FB68BA
:100634000A4A9A64FB6840331946F86AFFF732FEA7
:1006440097F9173018461837BD4680BD00F8FF7F6C
:10065400F9020008031600086903000843040008AF
:1006640080B588B002AFF860B9607A603B60FB681F
:100674005B695B8ABB82FB681B8ABA8A9A4200F078
:10068400A380FB681A8ABB8A53407B82FB68BA8AC0
:100694001A827A8A40F201131340002B10D0BA8ACE
:1006A40040F201131340002B14BF01230023DBB2DB
:1006B40019460023009300230122F86800F01BF977
:1006C4007B8A03F00203002B10D0BB8A03F00203E1
:1006D400002B14BF01230023DBB21946002300932F
:1006E40048F220130722F86800F005F97B8A03F02A
:1006F4000403002B10D0BB8A03F00403002B14BFA7
:1007040001230023DBB219460023009348F240136F
:100714001222F86800F0EFF87B8A03F00803002B3C
:1007240010D0BB8A03F00803002B14BF012300235D
:10073400DBB219460023009348F210131422F86820
:1007440000F0D9F87B8A03F08003002B10D0BB8A19
:1007540003F08003002B14BF01230023DBB21946EE
:10076400002300934FF401431522F86800F0C3F806
:100774007B8A03F40073002B10D0BB8A03F400734C
:10078400002B14BF01230023DBB21946002300937E
:1007940048F220130622F86800F0ADF87B8A03F4CF
:1007A4000063002B10D0BB8A03F40063002B14BF3A
:1007B40001230023DBB219460023009348F21013EF
:1007C4001322F86800F097F80023FB75FB685B7947
:1007D400002B03D0FB7D43F00103FB75FB689B7882
:1007E400002B03D1FB68DB78002B03D0FB7D43F0A7
:1007F4001003FB75FB681B7A002B03D1FB685B7A43
:10080400002B03D0FB7D63F07F03FB75FB68DB6883
:10081400FA7D1A70BB68002B67D0FB681B7F012B25
:1008240065D9FB689B7F7B74FB68DB6A1B69002BC3
:100834005DD1FB685B7F7A7C9A4258D0FB689A69E9
:100844007B7CDB0013441968FB7D1A04FB68986900
:100854007B7CDB0003440A431A60FB68DB6A581D97
:10086400FB689A697B7CDB0013440822194609F073
:10087400F2F8FB685A69FB68DB6A1946104605F012
:10088400A7FF7B7C01337B74FB681B7F7A7C9A42D5
:1008940001D27A7C00E00022FB689A77FB68DB7F58
:1008A400012B0CD1FB680222DA77002300934FF46A
:1008B400805320220121F86800F01DF817E0FB683E
:1008C400DB7F022B13D1FB689A7FFB685B7F9A4224
:1008D4000DD1FB680022DA77002300930023202245
:1008E4000021F86800F007F801E000BF00E000BF55
:1008F4001837BD4680BD80B48DB000AFF860B960D4
:1009040011461A460B46FB711346BB80FB68002B4D
:1009140000F0A680FB79DB0887F82F30FB7903F021
:100924000703012202FA03F387F82E3097F82F30D9
:10093400092B0AD9052387F82F30012387F82E3095
:100944004FF4C243BB80FB79BB6397F82F30FA683E
:100954001344BB62BB6A1A7897F82E30134087F8A9
:100964002730BB68002B04D097F82730002B06D023
:1009740079E097F82730002B74D00023BB80FB79F3
:100984001A06BB8813433B62BB6BFB61FB685B6964
:10099400EFF310827A617A691A6372B600BFBB689A
:1009A400002B08D0BB6A1A7897F82E301343DAB2BA
:1009B400BB6A1A700BE0BB6A1B785AB297F92E30E7
:1009C400DB435BB213405BB2DAB2BB6A1A70FB68FA
:1009D4001B7F012B3CD9FB685B7FFB76FB7E0133DD
:1009E40087F82D30FB681B7F97F82D209A4202D39D
:1009F400002387F82D30FB689B7F97F82D209A42BF
:100A040003D1FB680122DA7722E0FB689A69FB7E56
:100A1400DB0013443A6A1A60FB689A69FB7EDB00C8
:100A24001344FA695A60FB6897F82D205A77FB68DB
:100A340093F820301A46FB681B7F013B9A4207D289
:100A4400FB6893F820300133DAB2FB6883F8202086
:100A5400FB685B691B6B3B613B6983F3108802E0B5
:100A640000BF00E000BF3437BD4680BC704780B48F
:100A740085B000AF78607B681B68FB60FB68184634
:100A84001437BD4680BC704780B483B000AF786033
:100A94007B68002B02D07B681B8800E0002318468B
:100AA4000C37BD4680BC704780B483B000AF78601B
:100AB40039607B68002B01D1052303E07B683A6829
:100AC4009A60002318460C37BD4680BC704780B539
:100AD40086B002AFF8607A603B600B46FB72F97A2D
:100AE4003B68009304237A68F86800F08DFF03469E
:100AF40018461037BD4680BD80B487B000AF78601B
:100B040039607B687B613B681B79FB743B68053308
:100B1400FB60FB7C012B07D1FB681B785AB27B6915
:100B24005A707B690122DA6000BF1C37BD4680BC65
:100B3400704780B588B000AFF860B9607A603B60F8
:100B4400FB685B68FB61FB68002B12D0BB68002B61
:100B54000FD0FB681B7D002B0BD0FB681A7DFB6953
:100B64001B7A9A4205D87B68042B02D13B68002B80
:100B740001D1092320E0B868FFF779FFB861BB69A8
:100B84001B0CFB75BB69BB82FB681B7D013BD9B2A7
:100B9400BB8AFA7DF86900F0BDF80346FB7497F947
:100BA4001330002B01D0082306E03B687A68B9684B
:100BB400F86800F024FD034618462037BD4680BD82
:100BC40080B588B000AFF860B9607A60FB70FB68EC
:100BD400002B0BD0BB68002B08D07B68002B05D002
:100BE400BB6A002B02D0FB6A002B02D14FF0FF330B
:100BF40087E030220021F86808F0A2FEFB68BA689A
:100C04001A60FB687A685A60FB68FA6A9A61FB6842
:100C14003A8E9A83FA78BB6A9B78013B934228BF49
:100C24001346DAB2FB681A720023FB7741E0FB7FBC
:100C34000133D9B207F114020123B86AFFF747FF61
:100C44000346BB7797F91E30002B0CD07B6B002B2F
:100C540006D0B86AFFF718FF03461A467B6B1A6082
:100C64006FF00B034DE07B691B0C7B777B697B8307
:100C74007B8B7A7FF97FF86800F04CF803467B762B
:100C840097F91930002B11D07B6B002B06D0B86A72
:100C9400FFF7FAFE03461A467B6B1A6097F9193080
:100CA40013F10C0F02D097F919302AE0FB7F0133BE
:100CB400FB77FB681B7AFA7F9A42B8D3FB68FA6821
:100CC4001A62FB68114A5A62FB68114A9A62FB680D
:100CD40020331946B86AFFF7E7FE0346BB7797F956
:100CE4001E30002B0CD07B6B002B06D0B86AFFF7AC
:100CF400CBFE03461A467B6B1A606FF00B0300E0D1
:100D0400002318462037BD4680BD00BF5315000898
:100D1400370B000890B58DB004AF786008461146D3
:100D24001A460346FB700B46BB7013463B800023F8
:100D3400FB777B68002B04D07B681B7AFA789A4295
:100D440002D34FF0FF3375E03B88002B24D0BB78EF
:100D5400002B21D00023BB7719E07B685A68BB7F46
:100D64001B01134407F108040FCB84E80F00FA7841
:100D7400BB7F9A4208D03B69002B05D03B7ABA78F6
:100D84009A4201D1F423FB77BB7F0133BB777B68A5
:100D94001B7ABA7F9A42E0D397F91F30002B47D1D0
:100DA4007B685A68FB781B011344BB61BB69BA7842
:100DB4001A703B884FF47A7203FB02F2BB699A60A3
:100DC400BB69FF225A70BB690022DA60BB691B78D9
:100DD400002B0CD0BB699B68002B08D0BB691B7827
:100DE40003F5E063BB83BB6901229A7007E000232B
:100DF400BB83BB6900229A60BB6900229A707B683E
:100E040098697B689A8BFB789BB2134499B27B6890
:100E14005A68FB781B011344BA8B084C0294019363
:100E24000023009340F2FF7305F0FCFB0346FB77BD
:100E340097F91F3018462437BD4690BDFD0A0008B7
:100E440080B58EB002AFF860B9607A603B60012370
:100E5400FB620123BB62BB68002B77D0FB685B6934
:100E6400002B73D0002387F8273068E07B683B624F
:100E7400FB685A6897F827301B011344BB61BB69B0
:100E84009B78002B55D0BB69DB68002B22D0BB6953
:100E940093F90130002B12D1BB699B78022B0AD144
:100EA400FB68186897F82730009348F230131C2227
:100EB4000121FFF720FDBB6901229A7007E0BB699D
:100EC40002229A70BB6900225A6000233B62BB690C
:100ED4000022DA60BB699B78022B1CD1BB695A687B
:100EE4003B6A1A44BB695A60BB695A68BB699B6810
:100EF4009A4210D3FB68186897F82730009348F299
:100F040030131B220121FFF7F6FCBB69FF225A7044
:100F1400BB6903229A70BB699B78022B01D0002322
:100F2400FB62BB6993F90130052B03D00023BB623C
:100F340000E000BF97F82730013387F82730FB68BB
:100F44001B7A97F827209A4290D328E0BB68002B9D
:100F540003D1FB685B69002B21D00023FB7715E0EC
:100F6400FB685A68FB7F1B0113447B617B69FF228A
:100F74005A707B690022DA607B699B78002B02D06F
:100F84007B6901229A70FB7F0133FB77FB681B7A34
:100F9400FA7F9A42E4D30023FB620023BB62FB681E
:100FA400DB68002B14D1FB6A002B11D0FB68186896
:100FB4000023009300231B220021FFF79CFCFB6805
:100FC40018680023009300231C220021FFF793FCE0
:100FD400FB68FA6ADA60FB68BA6A1A61FB68BA6885
:100FE4005A6100BF3037BD4680BD80B485B000AFC4
:100FF40078607B681B889BB2FB81FB891846143799
:10100400BD4680BC704780B483B000AF78607B6815
:10101400002B02D07B681B8800E0002318460C37A5
:10102400BD4680BC704780B483B000AF786039603F
:101034007B68002B01D1052303E07B683A689A6042
:10104400002318460C37BD4680BC704780B586B077
:1010540002AFF8607A603B600B46FB72F97A3B683A
:10106400009302237A68F86800F0CEFC0346184621
:101074001037BD4680BD80B485B000AF78600B46A4
:10108400FB70FB78DB08FB73FB7803F0070301229A
:1010940002FA03F3BB737B68002B0AD0FB7B092B9A
:1010A40007D8FB7B7A68D25CBB7B1340DBB2002B96
:1010B40001D0012300E0002318461437BD4680BC4C
:1010C400704780B483B000AF78607B68002B07D092
:1010D4007B68DB68002B03D07B68DB681B7800E04F
:1010E400002318460C37BD4680BC704780B487B0D7
:1010F40000AF786039603B681B79FB753B6805334A
:101104003B613B691B78FB733B6901331B78BB7301
:101114007B68BB60FB7D022B0AD1BB7B002B04D018
:10112400BB68DB78BA7B9A4202D1BB68FA7B9A70BF
:1011340000BF1C37BD4680BC704780B586B000AF89
:10114400F860B9607A603B60FB68002B0CD0FB68E8
:101154001B7D002B08D1BB68002B05D07B68022BBC
:1011640002D13B68002B01D1092317E0FB685B68BF
:101174007B61B868FFF739FF03461A464FF47A7368
:1011840003FB02F27B699A607B690022DA603B68A8
:101194007A68B968F86800F032FA034618461837D6
:1011A400BD4680BD80B58AB004AFF860B9607A608E
:1011B400FB700023FB75FB68002B0BD0BB68002B76
:1011C40008D07B68002B05D0BB6A002B02D07B6B58
:1011D400002B02D14FF0FF3397E02C220021F86856
:1011E40008F0AEFBFB6800221A70FB6800225A70FC
:1011F400FB68FA78DA70FB683A8C9A80FB687A6844
:101204001A62BB8C4FF47A7203FB02F2FB68DA6059
:1012140007F1140201230021B868FFF717FF034602
:10122400BB7597F91630002B0CD03B6C002B06D005
:10123400B868FFF7E8FE03461A463B6C1A606FF085
:101244000B0362E0BB8A1A464FF47A7303FB02F283
:10125400FB689A60FB68FA681A61FB682D4A5A6158
:10126400FB682D4A9A61FB6810331946B868FFF78A
:10127400DAFE0346BB7597F91630002B0CD03B6C95
:10128400002B06D0B868FFF7BEFE03461A463B6C37
:101294001A606FF00B0338E0FB68DA68FB689B6840
:1012A4009A4203D9FB689A68FB68DA603A8EB98D72
:1012B4001A4B0293FB6801930023009340F2FF73DF
:1012C400B86A05F0AFF90346FB7597F91730002BA0
:1012D40002D097F9173018E0FB687A6B5A62BA8F1C
:1012E400398F00230193012300930023786B05F0C9
:1012F400F5F90246FB689A62FB689B6A002B02D1EF
:101304004FF0FF3301E097F9173018461837BD4600
:1013140080BD00BF531500083F110008F1100008FC
:1013240080B58EB000AFF860B9607A603B60FB684E
:101334001B7887F83730002387F8363097F9373031
:10134400002B0CBF01230023DBB23B63FB68DB688B
:101354007A689A4204D2FB68DA687B68D31A00E0A0
:101364000023FA68D3603B6B002B0ED1FB689B68AB
:10137400002B2BD0FB68DB68002B06D0FB6893F9AD
:10138400013097F937209A4220D0FB689B6A97F87E
:1013940037205A71FB685A6AFB689B6A19461046E3
:1013A40005F016FA97F93730002B0BD1FB689B88B0
:1013B40003F48073002B01D0052300E07F2387F81A
:1013C400373003E0FB689A68FB68DA60FB6897F8DB
:1013D40037205A70FB689B78002B2AD0FB689B78D7
:1013E400822B1ED0822B20DC812B16D0812B1CDC7F
:1013F400802B0ED0802B18DC012B02D0022B04D0C2
:1014040013E0052387F8373010E0042387F83730DA
:101414000CE07F2387F8373008E0022387F8363062
:1014240004E0012387F8363000E000BFFB680022A7
:101434009A70FB689B8803F48053002B14BF01232C
:101444000023DBB2FB62FB681B6A12211846FFF71C
:1014540012FEB862FB681B6A1B211846FFF70BFEDD
:101464007862FB681B6A1C211846FFF704FE386289
:10147400FB6A002B0AD0BB6A002B05D17B6A002BC8
:1014840002D13B6A002B01D0012300E00023FB6161
:10149400FB689B8803F40053002B14BF0123002333
:1014A400DBB2BB61FB681B6A1846FFF70AFE034602
:1014B4001A46FB689B88DBB21340DBB2002B14BFD7
:1014C40001230023DBB27B61BB69002B04D07B6961
:1014D400002B01D0012300E000233B6197F9373052
:1014E400052B11D1FB69002B02D13B69002B0BD0DA
:1014F400FB689B8803F48043002B01D0042300E0A5
:101504007F2387F8373011E0FB689B881BB2002BE0
:101514000CDA97F937307F2B08D1FB69002B05D102
:101524003B69002B02D1052387F83730FB6897F815
:1015340037201A70BB68002B03D0BB6897F837209C
:101544001A7097F8363018463837BD4680BD80B5D6
:1015540088B000AFF860B9607A603B60FB68002B2C
:1015640005D0BB68002B02D03B68002B01D10923B6
:1015740041E0FB689B68FB61FB681B68BB61BB695E
:10158400002B01D10E2336E00023FB75FB68DB68DA
:10159400002B03D1FA697B689A4222D9FB68DB6885
:1015A400FA699A4201D8092325E0FB68DB68FA69E5
:1015B400D31AFB61FB68DB68BA691344BB61FA693F
:1015C4007B689A420AD97B68FB61FB68DA68FB692D
:1015D4001A44FB68DA60FF23FB7502E0FB68002213
:1015E400DA60FA69B969B86808F035FA3B68FA69EB
:1015F4001A6097F9173018462037BD4680BD80B56C
:1016040088B000AFF860B9607A603B60FB68002B7B
:1016140005D0BB68002B02D03B68002B01D1092305
:1016240056E0FB689B68FB61FB69BB61FB681B6858
:101634007B617B69002B01D10E2349E00023FB74FD
:10164400FB68DB68002B03D1FA697B689A4224D9D2
:10165400FB68DB68FA699A4201D8092338E0FB6821
:10166400DB68FA69D31AFB61FB69BB61FB68DB6861
:101674007A6913447B61FA697B689A420AD97B6868
:10168400FB61FB68DA68FB691A44FB68DA60FF23D4
:10169400FB7402E0FB680022DA60FA697B689A4214
:1016A40001D20C2314E0FA69BB699A420FD8FA6993
:1016B4007B689A420BD8FA69B968786908F0CBF963
:1016C40000BF3B68FA691A6097F9133000E00923F8
:1016D40018462037BD4680BD80B485B000AFF860A1
:1016E400B9607A603B60022318461437BD4680BC5B
:1016F400704780B485B000AFF860B9607A603B6031
:10170400022318461437BD4680BC704780B487B0A6
:1017140000AF78600B467B807B68002B03D07B682E
:101724001B88002B01D1002346E00023FB827B6849
:101734001B88013BBB8226E0FA8ABB8A13445B10F8
:10174400FB817B685968FA8913465B0013449B004C
:101754000B44BB60BB681B887A889A4201D1BB6882
:101764002AE0BB681B887A889A4209D2FB89002B3D
:1017740003D0FB89013B9BB200E0FB89BB8202E002
:10178400FB890133FB82FA8ABB8A9A42D4D3FA8A50
:10179400BB8A9A420FD17B685968FA8A13465B0068
:1017A40013449B000B443B613B691B887A889A4233
:1017B40001D13B6900E0002318461C37BD4680BCBC
:1017C4007047000080B48DB000AFF8607A603B6071
:1017D4000B46FB72FB68002B03D0FB685B68002B95
:1017E40001D10523E7E07B68002B01D10923E2E066
:1017F400002387F82F307B683B62FB68DB7803F0BB
:101804000F03032B55D0032B00F39380012B02D03D
:10181400022B17D08DE0FB7A002B03D00E2387F820
:101824002F308AE0FB685B683B613B691A793B6A4D
:101834001A743B691A683B6A1A603B699A683B6A86
:101844009A607AE0FB689B78FA7A9A4203D30E2373
:1018540087F82F3071E0FB685B68BB61FB7A002B73
:101864000BD1BB691A7A3B6A1A74BB691A683B6A62
:101874001A603B6A01229A605FE0BB695A7A3B6A4C
:101884001A74BB695B687B617B69002B09D0BB69F7
:101894001B69FA7A013AD2B202FB03F37A69134460
:1018A40000E07B693A6A1360BB69DA683B6A9A6054
:1018B40043E0FB685B68FB610023BB62002387F89D
:1018C40027301CE097F8272013465B0013449B0045
:1018D4001A46FB6913441B79FA7A9A420AD197F89B
:1018E400272013465B0013449B001A46FB691344EC
:1018F400BB620AE097F82730013387F82730FB688A
:101904009B7897F827209A42DCD3BB6A002B03D13B
:101914000E2387F82F3010E0BB6A5A793B6A1A7499
:10192400BB6A1A683B6A1A60BB6A9A683B6A9A6027
:1019340003E0092387F82F3000BF97F92F30002BDD
:1019440037D1FB689B68002B02D03B68002B09D081
:101954007B681B4A9A617B681A4ADA613B6A0022F7
:101964005A601CE0FB689B685B68002B03D0FB6833
:101974009B685B6800E0144B7A689361FB689B6822
:101984009B68002B03D0FB689B689B6800E00F4BAF
:101994007A68D361FB689B681A683B6A5A603B6A41
:1019A4000022DA60FB681A883B6A5A823B6AFA7A38
:1019B4001A7597F92F3018463437BD4680BC7047E6
:1019C4005315000803160008DD160008F716000872
:1019D40080B483B000AF0346FB7197F90730002B46
:1019E40003DB97F90730192B02DD064B5B6A04E031
:1019F40097F90730034A52F8233018460C37BD468E
:101A040080BC7047ACA3000890B591B000AFF860FB
:101A14007A603B600B46FB727B68002B01D1092383
:101A24002BE007F1180320220021184607F088FF55
:101A340007F11803FB6300237B6107F11802F97AAD
:101A44003B6DF868FFF7BEFE034687F83B3097F915
:101A54003B30002B02D097F93B300EE0FB6B9B68C8
:101A64003A689A4201D00B2307E03C6B07F1140358
:101A74003A687968F86BA047034618464437BD4670
:101A840090BD90B591B000AFF8607A603B600B46B2
:101A9400FB727B68002B01D109232BE007F11803AB
:101AA40020220021184607F04BFF07F11803FB63BF
:101AB40000237B6107F11802F97A3B6DF868FFF7A0
:101AC40081FE034687F83B3097F93B30002B02D068
:101AD40097F93B300EE0FB6B9B683A689A4201D061
:101AE4000B2307E07C6B07F114033A687968F86B01
:101AF400A047034618464437BD4690BD80B58EB016
:101B040000AFF8607A603B600B46FB7207F110038C
:101B14003B6307F11002F97A0123F868FFF752FEDC
:101B2400034687F8373097F93730002B16D13B6BD3
:101B34001B68002B03D03B6B9B68002B03D109234C
:101B440087F837300AE07B68002B07D03B6B9B6833
:101B54007A689A4202D00B2387F837303B68002B0F
:101B640003D03B6897F837201A7097F93730002B69
:101B740002D13B6B1B6800E0002318463837BD4692
:101B840080BD80B485B000AF78607B681B78FB7340
:101B9400FB7B18461437BD4680BC704780B485B0C3
:101BA40000AF78607B681B889BB2FB81FB89184679
:101BB4001437BD4680BC704780B485B000AF7860F0
:101BC4007B681B68FB60FB6818461437BD4680BC05
:101BD400704780B483B000AF786039603A687B683E
:101BE4001A60042318460C37BD4680BC704780B485
:101BF40083B000AF78607B68002B02D07B681B88C1
:101C040000E0002318460C37BD4680BC704780B402
:101C140083B000AF786039607B68002B01D1052365
:101C240003E07B683A689A60002318460C37BD4687
:101C340080BC704780B586B002AFF8607A603B60C4
:101C44000B46FB72F97A3B68009301237A68F868C3
:101C5400FFF7DAFE034618461037BD4680BD80B54F
:101C640086B002AFF8607A603B600B46FB72F97A8B
:101C74003B68009302237A68F868FFF7C5FE0346C1
:101C840018461037BD4680BD80B586B002AFF860F7
:101C94007A603B600B46FB72F97A3B68009304233D
:101CA4007A68F868FFF7B0FE034618461037BD4659
:101CB40080BD80B485B000AFF860B9607A603B60E5
:101CC4003B68002B02D03B687A681A6000231846F0
:101CD4001437BD4680BC704780B584B000AFF8604F
:101CE400B9607A603B60BB68002B05D0FB68002BB1
:101CF40002D03B68002B01D1092310E0FB689B68EC
:101D04007A689A4202D9FB689B687B607A680021F2
:101D1400B86807F015FE3B687A681A600023184615
:101D24001037BD4680BD0000B0B592B000AFF8607A
:101D3400B9603B601346FB71BB681B0CA7F84630C7
:101D4400BB681B0A87F84530BB6887F8443097F8AE
:101D54004430DB0887F84330FB795B011033FA68C1
:101D64001344FB6397F84330082B01D9072390E011
:101D7400B7F846301F2B1AD897F84530002B16D1E8
:101D8400FB6BBB6318220021B86B07F0D9FD97F8F1
:101D94004320BB6B9A6097F84320BB6BDA60FB6B04
:101DA4003E4A9A61FB6B3E4ADA61002371E0B7F860
:101DB40046301946B86DFFF7A9FC786307F11002A5
:101DC40097F845100023786BFFF7FCFC034687F86F
:101DD400333097F93330002B02D097F9333058E081
:101DE4003B68002B01D0082300E0042387F832303D
:101DF40097F8202097F832301340DBB2002B0AD03A
:101E040097F8443003F00703002B04D1BA6997F81C
:101E140043309A4201D206233BE0FB6B1D4607F197
:101E240010040FCC0FC594E80F0085E80F0097F855
:101E34004320FB6BDA603B68002B29D197F84530CF
:101E44001F2B1FD87B6B9B68002B1BD07B6B996867
:101E540097F84530DB08DBB2FA7908330B44191DD7
:101E6400FB68443243F8221097F8453003F0070327
:101E740001229A40FB79D1B2FA6813440A4683F8E6
:101E8400302105E0FA79FB684432002143F822103E
:101E9400002318464837BD46B0BD00BFDD1C00080E
:101EA400B71C000880B58CB002AFF860B9607A60E6
:101EB4003B6000237B620023FB7607F11B020123B6
:101EC40000217868FFF7B6FE034687F8223097F9B9
:101ED4002230002B0CD03B6B002B06D07868FFF728
:101EE40086FE03461A023B6B1A606FF00B037FE019
:101EF400002387F823305BE097F823305B0110332D
:101F0400FA681344FB6100237B6197F823300133A3
:101F1400D9B207F1140201237868FFF7B5FE03462E
:101F240087F8223097F922300E2B3BD097F92230D4
:101F3400002B0FD03B6B002B09D07868FFF757FEBE
:101F440003461A0297F823301A433B6B1A606FF06A
:101F54000B034DE0796997F82320BB6800933B6835
:101F6400F868FFF7E1FE034687F8223097F922303C
:101F7400002B0CD0FB6900229A60FB69FF22DA6017
:101F84007B6B1B68002B02D17A697B6B1A60FB7E2A
:101F940097F823209A4206D2FB69DB687A6A1344D5
:101FA4007B6200E000BF97F82330013387F82330C9
:101FB40097F82330072B9FD97B6A082B05D87B6AB7
:101FC400002B09D1FB7E002B06D07B6B1B68002BFA
:101FD40002D17B6B01221A607B6B1B68002B06D13C
:101FE4007B6ADAB2FB681A73FA7EFB685A730023C1
:101FF40018462837BD4680BD80B58EB002AFF86064
:10200400B9607A603B60FB68002B09D0BB68002B89
:1020140006D03B68002B03D0FB681B7D082B01D93D
:1020240009237EE0FB685B687B627B6A9B68002B0C
:1020340007D17B6A5B7B002B05D0FB681B7D002BE3
:1020440001D002236DE0FB681B7D002B45D1B868ED
:10205400FFF797FD0346BB770023FB62BB7F082B8A
:1020640001D907235DE0002387F82B301BE097F8A4
:102074002B305B0110337A6A1344BB61BB699B68E4
:102084007B61BB69DB683B613A697B699A4201D930
:10209400062346E0FA6A3B691344FB6297F82B3047
:1020A400013387F82B3097F82B20BB7F9A42DED37D
:1020B400FB6A082B01D9072333E0FB6A002B04D108
:1020C400BB7F002B01D00F232BE0FB6ADAB27B6AC3
:1020D4001A737B6ABA7F5A731CE0B868FFF76CFD09
:1020E4003862FB681B7D013BDAB27B6AD3F8381196
:1020F4007B6AD3F83C3100930B46396A786AFFF760
:1021040013FE0346FB7797F91F30002B02D097F993
:102114001F3006E03B687A68B968F868FFF76FFA21
:10212400034618463037BD4680BD80B588B000AF41
:10213400F860B9607A603B603B687A68B968F868AF
:10214400FFF705FA0346FB7697F91B30002B34D1D1
:10215400FB681B7D012B30D13B681B68042B2CD101
:10216400FB685B687B61B868FFF726FDF861FB6973
:102174009BB2C3F30A037B827B8A002B11D07A8A39
:102184007B69B3F8423119464FF680730B409A428B
:1021940007D1FB691B0C1B047A69B2F84221134373
:1021A400FB617B699B68002B03D1FB6943F000430F
:1021B400FB61F969B868FFF70CFD97F91B30184605
:1021C4002037BD4680BD80B588B000AF78603960E7
:1021D4007B68BB61BB697B613B681B79FB743B68B3
:1021E4000533FB60BB6993F88031FB777B699B689F
:1021F400002B3ED07B691B7BFA7C9A4234D37B69EB
:102204001B7BFA7C9A4205D1FB7F012B07D10B2360
:10221400FB7704E0FB7F002B01D10D23FB77002328
:10222400BB77BB69D3F88831002B0CD0BB69D3F8DA
:102234008431002B07D0BB69D3F88431DB68002BD1
:1022440001D00123BB77BB7F2E33DB00BA69134473
:102254000822F968184607F0FEFBBA7FBB695A32B8
:10226400012143F8221004E0FB7F002B01D10C2351
:10227400FB77BB69FA7F83F8802100BF2037BD4616
:1022840080BD000080B592B004AFF860B9607A6098
:102294003B60FB68002B08D0BB68002B05D03B6873
:1022A400002B02D07B68042B01D9092302E1FB68CF
:1022B4005B683B633B6BFB6207F110037A68B968A8
:1022C400184607F0C8FBFB681B7D052B00F0D58082
:1022D400052B00F3E480012B03D0022B00F0A68031
:1022E400DDE0B868FFF768FCF861FB699BB2C3F3F3
:1022F4000A03FB86FB69DB43DB0FDBB2BB61FA69D4
:102304006E4B1340002B3DD1BB69002B09D0FB6AF7
:102314009B68002B05D0FB6AB3F84431FA8E9A42CD
:1023240030D1BB69002B26D0FB8E7F2B2AD9FB8EA4
:10233400B3F5807F03D9FB8EB3F5C07F22D9FB8E22
:10234400B3F5B06F03D9FB8EB3F5C06F1AD3FB8E10
:10235400B3F5C06F03D9FB8EB3F5D06F12D3FB8EE8
:10236400B3F5DC6F03D3FB8EB3F5E06F0AD3FB8EBA
:10237400B3F5E06F06D8BB69002B05D0FB6A5B7B25
:10238400002B01D10F2395E0FB6A9B68BA699A423E
:1023940006D1FB6AB3F84431FA8E9A4200F0818088
:1023A400FB6AB3F84231FA8E9A4208D1FB6923F0F2
:1023B4007F0207F1100311461846FFF70AFCBB69B8
:1023C400002B01D10023FB86FB6A5868FB6AB3F833
:1023D4004011FA8E3A4B02933B6B01930023009316
:1023E40040F2FF7304F01EF90346FB75BB69002B32
:1023F4000BD097F91730002B07D1FB6A01229A60A2
:10240400FB6AFA8EA3F844214BE0FB6A00229A602F
:102414003B6B0022C3F868213B6B0022C3F86C219C
:1024240097F91730002B3CD0092343E0B868FFF735
:10243400A8FB034687F8273097F82730F02B05D9F7
:1024440097F82730FD2B01D80F2333E097F8273076
:10245400F02B94BF01230023DBB23B623B6BD3F828
:1024640088313A6A9A4203D03B6B0022C3F86C214C
:102474003B6B3A6AC3F8882114E0B868FFF78EFB17
:102484000346BB62BB6A4FF47A7203FB02F23B6BF6
:10249400C3F88C213B6B0022C3F8902102E000BFFB
:1024A40000E000BF07F110013B687A68F868FFF7A5
:1024B400A6F8034618463837BD4680BD00F8FF3FEE
:1024C400CB21000880B590B004AFF860B9607A60A1
:1024D4003B60FB687B62FB68002B0ED0BB68002B63
:1024E4000BD07B68002B08D0FB6B002B05D03B6C1A
:1024F400002B02D07B6C002B02D14FF0FF3315E18F
:102504004FF4CA720021F86807F01AFA7B6A7A68F5
:102514001A607B6A7A6C5A600023FB6107F11C0322
:102524000193FB6C009301233A6CB968786AFFF756
:10253400B9FC034687F8233097F92330002B02D0E7
:1025440097F92330F2E00023BB6107F1180201235D
:102554000121F86BFFF798FB034687F8223097F9BF
:102564002230002B0ED0FB6C002B08D0F86BFFF749
:102574003EFB03461B0243F00102FB6C1A606FF042
:102584000B03D3E0BB69DB43DB0FDBB2FB62BB694C
:102594009BB2C3F30A037B85FB6A002B0DD07B6AD5
:1025A4005B7B002B02D07B8D002B06D10023FB62CA
:1025B400FB69002B01D10123FB61FB69002B0ED0C9
:1025C4007B6A1868FB69012B01D0FB6900E0BB69D9
:1025D40000934FF402431A220121FEF78CF9FB6A9F
:1025E400002B01D100237B857B8D002B08D07A8DB5
:1025F400398F4FF680730B409A4201D13B8F7B8514
:102604007A8DB7F848104B4B0293FB680193002373
:10261400009340F2FF73786C04F004F8034687F8E3
:10262400233097F92330002B02D097F923307DE033
:102634007B6AFA6A9A60FE23FB7507F1170201238D
:102644000221F86BFFF7F6FA034687F8223097F970
:102654002230002B0ED0FB6C002B08D0F86BFFF758
:10266400C6FA03461B0243F00202FB6C1A606FF0C9
:102674000B035BE0FB683A68C3F88421FB7DF02B15
:1026840094BF01230023DBB21A46FB68C3F88821F8
:102694000023BB8207F1140201230521F86BFFF725
:1026A400DEFABB8A1A464FF47A7303FB02F2FB6824
:1026B400C3F88C217B6A0122C3F838217B6ABA688B
:1026C400C3F83C217B6AB7F84820A3F840217B6A11
:1026D4003A8FA3F842217B6A7A8DA3F844217B6A5E
:1026E400FA68C3F848217B6A134AC3F84C217B6A11
:1026F400124AC3F850217B6AFA68C3F858217B6AEE
:102704000F4AC3F85C217B6A0E4AC3F860217B6AD6
:1027140003F5A4731946F86BFFF779FA7B6A03F59E
:10272400AC731946386CFFF772FA00231846303739
:10273400BD4680BDCB2100082F2100088922000856
:1027440053150008FD1F000890B593B002AFF86060
:10275400B9607A603B60FB68002B08D0BB68002B33
:1027640005D03B68002B02D07B68042B01D90923D8
:1027740036E1FB685B68BB63BB6B7B6307F11403E7
:102784007A68B968184607F066F9FB681B7D013B57
:10279400052B00F21A8101A252F823F0B927000890
:1027A400EF28000851290008CF2900087F290008D4
:1027B400A3290008B868FFF7FFF938623B6A9BB2A7
:1027C400C3F30A03FB873B6ADB43DB0FDBB2FB612A
:1027D4003A6A854B1340002B3DD1FB69002B09D08D
:1027E4007B6B9B68002B05D07B6BB3F84431FA8F6D
:1027F4009A4230D1FB69002B26D0FB8F7F2B2AD93C
:10280400FB8FB3F5807F03D9FB8FB3F5C07F22D94B
:10281400FB8FB3F5B06F03D9FB8FB3F5C06F1AD339
:10282400FB8FB3F5C06F03D9FB8FB3F5D06F12D311
:10283400FB8FB3F5DC6F03D3FB8FB3F5E06F0AD3E3
:10284400FB8FB3F5E06F06D8FB69002B05D07B6BDB
:102854005B7B002B01D10F23C2E07B6B9B68FA6981
:102864009A4206D17B6BB3F84431FA8F9A4200F056
:10287400AE807B6BB3F84231FA8F9A4208D13B6A3F
:1028840023F07F0207F1140311461846FFF7A1F95C
:10289400FB69002B01D10023FB877B6B58687B6BA2
:1028A400B3F840117B6B1B7BBA6B92F86C21F02A56
:1028B40094BF01220022D2B21446FA8F01940093ED
:1028C400002303F00BFFB861BB69002B01D109237E
:1028D40086E0BB6BBA69C3F868217B6BFA699A60BE
:1028E4007B6BFA8FA3F8442171E0B868FFF749F9CC
:1028F400034687F8273097F82730F02B05D997F847
:102904002730FD2B01D80F236AE097F82730F02BEE
:1029140094BF01230023DAB2BB6BD3F868315A6148
:10292400BB6BFF2283F87921BB6B97F8272083F8D0
:102934006C21BB6B0122C3F87021BB6B0022C3F86E
:102944008421BB6B0022C3F8882141E07B6B9B6828
:10295400002B01D00F2343E0B868FFF71FF90346AB
:10296400BB62BB6A642203FB02F2BB6BC3F87C212B
:10297400BB6B0022C3F884212AE0B868FFF70EF984
:102984000346FB62FB6A4FF47A7203FB02F2BB6BF1
:10299400C3F88021BB6B0022C3F8882118E0B86813
:1029A400FFF7EFF8034687F833307B6B9B68002B07
:1029B40003D197F83330F02B01D90F2310E0BB6B10
:1029C40097F8332083F8782102E000BF00E000BFCD
:1029D40007F114013B687A68F868FEF710FE0346B5
:1029E40018464437BD4690BD00F8FF3F80B58EB011
:1029F40002AFF860B9607A603B60FB687B62FB6899
:102A0400002B0ED0BB68002B0BD07B68002B08D0AA
:102A1400FB6B002B05D03B6C002B02D07B6C002B96
:102A240002D14FF0FF3344E14FF4C6720021F8683D
:102A340006F086FF7B6A7A681A607B6A7A6C5A6051
:102A44000023FB6107F11C030193FB6C009300233B
:102A54003A6CB968786AFFF725FA034687F8233099
:102A640097F92330002B02D097F9233021E1FE237C
:102A7400FB7607F11B0201230221F86BFFF7DAF85A
:102A8400034687F8223097F92230002B0ED0FB6CD6
:102A9400002B08D0F86BFFF7AAF803461B0243F09B
:102AA4000202FB6C1A606FF00B0302E1FB7EFD2B4C
:102AB40004D8FB7EF02B01D9FE23FB76FA7EFB685B
:102AC40083F86C21FB680122C3F8702100237B6129
:102AD40007F1140201230121F86BFFF7D5F803462F
:102AE40087F8223097F92230002B0ED0FB6C002B94
:102AF40008D0F86BFFF77BF803461B0243F0010292
:102B0400FB6C1A606FF00B03D3E07B69DB43DB0FD4
:102B1400DBB2FB627B699BB2C3F30A037B85FB6A6E
:102B2400002B0DD07B6A5B7B002B02D07B8D002BAE
:102B340006D10023FB62FB69002B01D10123FB6159
:102B4400FB69002B0ED07B6A1868FB69012B01D04E
:102B5400FB6900E07B6900934FF402431A220121D0
:102B6400FDF7C9FEFB6A002B01D100237B857B8D19
:102B7400002B08D07A8D398F4FF680730B409A4220
:102B840001D13B8F7B857B6A1B7BFA6892F86C21B1
:102B9400F02A94BF01220022D2B210467A8DB7F8EF
:102BA4004810019000930023786C03F097FD0246CF
:102BB400FB68C3F86821FB68D3F86831002B02D1A5
:102BC4004FF0FF3375E07B6AFA6A9A6000237B82D8
:102BD40000233B8207F1120201230321F86BFFF764
:102BE4003EF807F1100201230521F86BFFF737F8CF
:102BF4007B8A1A46642303FB02F2FB68C3F87C2138
:102C04003B8A1A464FF47A7303FB02F2FB68C3F85B
:102C14008021FB68002283F87821FB6803F5BC72ED
:102C240001230621F86BFFF705F8FB683A68C3F83F
:102C34007421FB68FF2283F879217B6A0022C3F8A0
:102C440038217B6ABA68C3F83C217B6AB7F848200C
:102C5400A3F840217B6A3A8FA3F842217B6A7A8DDC
:102C6400A3F844217B6AFA68C3F848217B6A134AB3
:102C7400C3F84C217B6A124AC3F850217B6AFA6874
:102C8400C3F858217B6A0F4AC3F85C217B6A0E4A59
:102C9400C3F860217B6A03F5A4731946F86BFEF749
:102CA400B6FF7B6A03F5AC731946386CFEF7AFFFC9
:102CB400002318463037BD4680BD00BF2F210008D1
:102CC4004D27000853150008FD1F000880B485B087
:102CD40000AF78607B681B78FB73FB7B1846143766
:102CE400BD4680BC704780B485B000AF78607B6817
:102CF4001B68FB60FB6818461437BD4680BC7047F0
:102D040080B483B000AF78607B68002B02D07B680E
:102D14001B8800E0002318460C37BD4680BC704772
:102D240080B483B000AF786039607B68002B01D138
:102D3400052303E07B683A689A60002318460C3741
:102D4400BD4680BC704780B586B002AFF8607A603B
:102D54003B600B46FB72F97A3B68009301237A6867
:102D6400F868FEF751FE034618461037BD4680BD8D
:102D740080B586B002AFF8607A603B600B46FB72A8
:102D8400F97A3B68009304237A68F868FEF73CFEFE
:102D9400034618461037BD4680BD80B586B002AFE5
:102DA400F8607A603B600B46FB723A1DF97A3B6827
:102DB40000930423F868FEF764FE034618461037B0
:102DC400BD4680BD80B586B000AF786039607B6851
:102DD4007B613B681B79FB743B680533FB60FB7CC0
:102DE400082B15D1FB681B78802B03D17B6900224B
:102DF4001A750DE07B69DB6B002B09D17B694033CD
:102E0400FA7CF968184606F026FE7B690122DA632B
:102E140000BF1837BD4680BD80B58AB004AFF860E6
:102E2400B96011461A460B46FB801346BB80FB680B
:102E34001B6D3A6A9A4206D1FB685B6D7A6A9A42C4
:102E440001D100234EE0FB683A6A1A65FB687A6A8E
:102E54005A653B6A002B02DB3B6A9BB200E000230D
:102E6400FB827B6A002B02DB7B6A9BB200E00023BF
:102E7400BB82FB8A002B06D0BB8A002B03D0FB68E5
:102E840001221A6106E00023FB820023BB82FB6857
:102E940000221A61FA8AF988144B0293FB680193A1
:102EA4000023009340F2FF73B86803F0BBFB0346B2
:102EB400FB74FB681868BA8AB98800230193082355
:102EC4000093002303F00AFC0246FB685A60FB6887
:102ED4005B68002B04D1FF23FB74FB6800221A619A
:102EE40097F9133018461837BD4680BDC92D000820
:102EF40090B58FB002AFF860B9607A603B60FB6850
:102F0400002B05D0BB68002B02D03B68002B01D1FD
:102F14000923F9E0FB685B68FB62FB681B7D032BFC
:102F240000F2E88001A252F823F000BF412F00080C
:102F3400452F000809300008CF3000080423E3E0DF
:102F4400B868FFF7D0FEB861BB699BB2C3F30A034C
:102F5400FB82FB6A1B6D9BB2C3F30A03BB82BB6992
:102F6400DB43DB0FDBB23B61BA69694B1340002BD7
:102F740034D13B69002B07D0FB6A1B69002B03D0BB
:102F8400FA8ABB8A9A4229D13B69002B28D0FB8A52
:102F94007F2B23D9FB8AB3F5807F03D9FB8AB3F552
:102FA400C07F1BD9FB8AB3F5B06F03D9FB8AB3F595
:102FB400C06F13D3FB8AB3F5C06F03D9FB8AB3F593
:102FC400D06F0BD3FB8AB3F5DC6F03D3FB8AB3F565
:102FD400E06F03D3FB8AB3F5E06F01D90F2393E0CD
:102FE400FB6A996CFB6AB3F84C20FB6AB3F84E0099
:102FF400FB6A5B6D0193BB6900930346F86AFFF7B4
:103004000BFF7AE0B868FFF76EFE78627B6A9BB2CA
:10301400C3F30A037B84FB6A5B6D9BB2C3F30A03AD
:103024003B847B6ADB43DB0FDBB2FB617A6A384BA0
:103034001340002B34D1FB69002B07D0FB6A1B69BA
:10304400002B03D07A8C3B8C9A4229D1FB69002B4C
:1030540028D07B8C7F2B23D97B8CB3F5807F03D93D
:103064007B8CB3F5C07F1BD97B8CB3F5B06F03D9D0
:103074007B8CB3F5C06F13D37B8CB3F5C06F03D9CE
:103084007B8CB3F5D06F0BD37B8CB3F5DC6F03D3A0
:103094007B8CB3F5E06F03D37B8CB3F5E06F01D980
:1030A4000F2331E0FB6A996CFB6AB3F84C00FB6AAE
:1030B400B3F84E40FB6A1B6D7A6A01920093234673
:1030C4000246F86AFFF7A8FE17E07B68012B01D0DF
:1030D4000B2319E0B868FFF7F9FD034687F82B3096
:1030E40097F82B30002B03D097F92B30002B03DA01
:1030F4000F2309E00E2307E000BF3B687A68B96834
:10310400F868FEF77CFA034618463437BD4690BD8E
:1031140000F8FF3F80B58CB002AFF860B9607A6008
:10312400FB70FB68002B08D0BB68002B05D07B6BC1
:10313400002B02D0FB6B002B02D14FF0FF33F5E0E4
:10314400FB68BA689A60FB68FA781A733B8E4FF48E
:103154007A7203FB02F2FB689A67FB6800221A7515
:103164007B68002B17D1FB78002B03D097F9033031
:10317400002B02DA4FF0FF33D8E0FB789BB203F563
:10318400C063FB84FB789BB203F5B063BB84FB682C
:1031940001221A61A4E07868FFF7B2FD03467B843C
:1031A4007B8CB3F5905F23D1FB78002B03D097F988
:1031B4000330002B02DA4FF0FF33B7E0FB789BB209
:1031C40003F5C063FB84FB789BB203F5B063BB8457
:1031D400FB6801221A61FA8C012301217868FFF748
:1031E400DCFDBA8C012302217868FFF7D6FD77E075
:1031F4007B8CB3F5905F6FD97B8CB3F5945F6BD206
:1032040007F11D02012300217868FFF79CFD0346A6
:1032140087F8213007F11802012301217868FFF7AC
:10322400A7FD034687F8203007F114020123022189
:103234007868FFF79DFD0346FB7797F92130002B53
:103244000DD17B7F022B02D07B7F032B07D197F913
:103254002030002B03D197F91F30002B08D07B6C52
:10326400002B02D07A8C7B6C1A606FF00B035DE04C
:10327400BB69002B05DBBB699BB2C3F30A039BB29A
:1032840000E00023FB847B69002B05DB7B699BB298
:10329400C3F30A039BB200E00023BB84FB68FA6813
:1032A4009A65FB68234ADA65FB68234A1A66FB6859
:1032B400583319467868FFF733FD0346BB7797F90F
:1032C4001E30002B0BD07B6C002B02D07A8C7B6CD5
:1032D4001A606FF00B0329E04FF0FF3326E000BFC4
:1032E400FB680022DA63FB687A6B9A64FB683A8FA6
:1032F400A3F84C20FB68B7F84020A3F84E20FB68E5
:1033040000221A65FB6800225A65FB68FA6B1A6092
:10331400FB8CBA8CB7F84000398F019200930346B6
:103324000A46796BF868FFF777FD03461846283795
:10333400BD4680BD53150008F52E000890B58BB02E
:1033440000AFF860B96011461A460B46FB7113468C
:10335400BB80FB68D3F8A4307B62FB685B6F002BF7
:1033640000F08280FB689B6E002B15D0FB68DA6E40
:10337400FB689B6E9A420FD0FB68DA6EFB689B6E0B
:103384009A4201D9734A00E0734ABB681A60FB6829
:1033940001221A750023D8E0FB681B6A3B62FB68B4
:1033A40093F828305BB2002B42DA3B6A002B04D03E
:1033B400FB68DB6E3A6A9A423AD9FB68D3F8A430C8
:1033C4000233202B34D8FB68D3F8A430FA681344B2
:1033D400002283F88020FB68D3F8A4305A1CFB68D1
:1033E400C3F8A420FB68DB6E5A1CFB68DA663B6AF0
:1033F400002B04D0FB68DB6E3A6A9A4213D9FB684F
:10340400D3F8A430FA681344002283F88020FB68C0
:10341400D3F8A4305A1CFB68C3F8A420FB68DB6E05
:103424005A1CFB68DA66FB68DA6EFB681A622DE0E8
:103434003B6A002B04D1FB68DA6EFB681A6225E054
:10344400FB68DB6E3A6A9A4220D0FB68DB6E3A6A0C
:103454009A4201D23F4A00E03F4ABB681A60FB68C7
:1034640001221A75002370E0FB689B6E002B0DD0BF
:10347400FB68DA6EFB689B6E9A4207D9BB68354AD3
:103484001A60FB6801221A7500235EE000233B6189
:10349400FB681B68EFF310827A617A695A6372B62B
:1034A40000BFFB685C6BFB6803F11800FB6803F169
:1034B4008001FB68D3F8A42007F11003A04703465A
:1034C400FB77FB681B685B6BBB61BB6983F310888C
:1034D40000BFFB680022C3F8A42097F91F30002B1B
:1034E40011D097F91F30B3F1FF3F0CD097F91F307B
:1034F4001846FEF76DFA0246BB681A60FB680122A3
:103504001A75002321E0FB685B6F002B0CD097F940
:103514001F30B3F1FF3F07D1BB680F4A1A60FB6845
:1035240001221A75002310E0FB685B6F002B0BD19E
:1035340097F91F30002B07D1BB68064A1A60FB6855
:1035440001221A75002300E0012318462C37BD46DA
:1035540090BD00BF120007061300070690B58DB09A
:1035640000AFF860B9607A603B60FB68D3F8A420D0
:10357400FB68D3F8A830D31A7B62FB685B6F002B1F
:1035840040F0AB807A6A7B689A4280F0A680FB6840
:1035940003F18000FB6803F18002FB68D3F8A830D4
:1035A40013447A6A194606F0B1F9FB680022C3F89D
:1035B400A820FB687A6AC3F8A4207B6AC3F12003BD
:1035C4003B6200233B61FB681B68EFF310827A6166
:1035D4007A695A6372B600BFFB681C6BFB6803F11F
:1035E40018007B6A8033FA68D11807F110033A6A2D
:1035F400A047034687F82F30FB681B685B6BBB61F1
:10360400BB6983F3108800BF97F92F30002B11D0CA
:1036140097F92F30B3F1FF3F0CD097F92F301846AC
:10362400FEF7D6F90246BB681A60FB6801221A75D8
:10363400002353E03B697A6A1344FB613B69002B26
:1036440027D0FB6893F828305BB2002B21DAFA68A4
:10365400FB691344803300221A707B6A8033FA6852
:1036640013441846FCF7DCFDB862BB6A002B01D199
:103674000123BB623B69BA6A9A420AD2BB6A3B61C4
:10368400002387F82F30FB68DA6E3B691A44FB6825
:103694001A623A697B6A1A44FB68C3F8A420FB687F
:1036A400D3F8A430002B04D097F92F30B3F1FF3FA7
:1036B40010D1FB6800225A67FB68D3F8A4307A68FB
:1036C4009A420AD9BB68074A1A60FB6801221A7534
:1036D400002303E0FB6801225A67012318463437AC
:1036E400BD4690BD4700040690B59BB000AFF8609E
:1036F400B9607A603B60FB68002B03D16FF0010373
:1037040000F004BD012387F867300023FB62FB68E7
:10371400DB6B002B14BF01230023DBB27B65FB684A
:103724001B7DDBB2002B0AD1FB681B69002B06D082
:103734007B6D002B03D1002387F86730DBE2BB6885
:10374400002B03D0FB681B69002B09D1FB68002206
:103754001A75FB680022DA63002387F86730CAE22F
:103764007B6D002B00F0C782FB681B7DDBB2002B56
:1037740040F0CD8000233B66FB6893F8403003F0B3
:10378400F003202B03D1FB6811221A750FE0FB68AC
:1037940093F84030402B05D101233B66FB6821227E
:1037A4001A7504E0A94BFB62FB6801221A75FB6AD7
:1037B400002B63D1FB6893F842301BB21B021AB290
:1037C400FB6893F841301BB213431BB29AB2FB68F7
:1037D4001A87FB6893F84320FB6883F83A20FB6858
:1037E4009A68FB681B8F19461046FDF78FFFFB682C
:1037F40093F83A10FB6803F118020023FDF7E2FF87
:10380400034687F8533097F95330002B0AD097F9C1
:1038140053301846FEF7DCF80346FB62FB680122CE
:103824001A752BE0FB6893F8283003F00303002B90
:1038340005D1874BFB62FB6801221A751EE03B6EC3
:10384400002B0CD0FB6893F8283003F00103002B05
:1038540005D1804BFB62FB6801221A750EE03B6EBA
:10386400002B0BD1FB6893F8283003F00203002BE4
:1038740004D1794BFB62FB6801221A753B6E002B65
:1038840045D0FB6A002B42D1FB680022C3F8A82074
:10389400FB680022C3F8A420FB680022DA66FB68F8
:1038A40000225A6707F12C0100230722F868FFF76A
:1038B40055FE0346002B2AD0FB685B6F002B1AD001
:1038C400FB681A6AFB689A66FB689B6E002B05D13D
:1038D400FB68D3F8A420FB689A6618E0FB689A6E2C
:1038E400FB68D3F8A4309A4211D05C4BFB62FB68AE
:1038F40001221A750BE0FB6893F828305BB2002BA9
:1039040002DBFB681B6A00E00023FA689366FB682D
:103914001B7DDBB2002B14BF0123002387F8523038
:10392400FB681B7DDBB2012B05D097F85230002BCE
:1039340001D0012300E0002387F8523097F8523079
:1039440003F0010387F8523097F85230002B00F04F
:10395400CA81FB681B7DDBB2113B122B00F2B481E0
:1039640001A252F823F000BFB9390008CD3C000889
:10397400853B0008CD3C0008CD3C0008CD3C000848
:10398400CD3C0008CD3C0008CD3C0008CD3C0008EF
:10399400CD3C0008CD3C0008CD3C0008CD3C0008DF
:1039A400CD3C0008CD3C00087B3C0008CD3C000821
:1039B400833C0008FB6893F8403003F00203002BBB
:1039C40000F0A480FB681B6A7B640423FB65FB682E
:1039D40093F8403003F00103002B0AD0FB6893F8FE
:1039E40040309B08DBB203F00303FA6DD31AFB6586
:1039F40007E07B6C002B04D07B6C032B01D87B6C21
:103A0400FB6507F1240300221A609A80FB6803F126
:103A1400440107F12403FA6D184606F01CF8FB680C
:103A240093F828305BB2002B22DA7B6C002B03D096
:103A3400FA6D7B6C9A421BD27A6CFB6DD31A3B6491
:103A44003B6C012B0CD101230BE000BF01000405EA
:103A540000000106010001060200010647000406F9
:103A64000223FA6D1344FB65FB68FA6D1A6216E0D3
:103A74007B6C002B03D1FB68FA6D1A620FE0FA6DC0
:103A84007B6C9A420BD0FA6D7B6C9A4201D9914BB4
:103A940000E0914BFB62FB6801221A7523E10023CD
:103AA4003B62FB681B68EFF310827A637A6B5A639C
:103AB40072B600BFFB685C6BFB6803F1180007F18A
:103AC400200307F12401FA6DA047034687F83F302D
:103AD400FB681B685B6B3B633B6B83F3108800BF25
:103AE40097F93F30002B0AD097F93F301846FDF77D
:103AF4006FFF0346FB62FB6801221A75F3E0FB6863
:103B040012221A75FB6801225A67ECE0FB6893F8ED
:103B1400403003F00103002B28D0FB681B6ABB6410
:103B2400FB6844331B68FB61FA69FB689A66BB6CEB
:103B3400002B1ED0FB689B6EBA6C9A4205D2654B73
:103B4400FB62FB6801221A75CDE0FB689B6EBA6CC0
:103B54009A420ED9FB6893F828305BB2002B08DB3D
:103B64005D4BFB62FB6801221A75BCE0FB68002216
:103B74009A66FB6812221A75FB6800225A67B2E043
:103B8400FB6893F8403003F0E003002B6DD1FB6831
:103B940093F8403003F00103002B14BF01230023EA
:103BA400DBB21A46FB685A67FB6893F8403003F0AF
:103BB400100387F85030FB6893F8703097F8502062
:103BC4009A4205D0454BFB62FB6801221A758AE0D4
:103BD400FB6893F840305B08DBB2DB4303F0070378
:103BE400FB64FB6803F18002FB68D3F8A430D018AF
:103BF400FB684133FA6C194605F02DFFFB68D3F8D6
:103C0400A420FB6C1A44FB68C3F8A420FB68DA6E9A
:103C1400FB6C1A44FB68DA66FB681B6A002B0BD04A
:103C2400FB68DA6EFB681B6A9A4205D9294BFB6272
:103C3400FB6801221A7556E0FB685B6F002B06D106
:103C4400FB68D3F8A430C3F12003082B09D807F18B
:103C54002C0100230022F868FFF770FB0346002BB9
:103C640040D0FB6814221A753DE01D4BFB62FB68D3
:103C740001221A7537E0FB6822221A7533E0FB68CB
:103C840093F8403003F0EF03602B17D1FB6893F8EF
:103C9400403003F0100387F85130FB6893F870301C
:103CA40097F851209A4205D00C4BFB62FB68012225
:103CB4001A7518E0FB6824221A7514E0084BFB629D
:103CC400FB6801221A750EE0054BFB62FB680122BA
:103CD4001A7508E012000706130007060000030522
:103CE4000100040500BFFB680022DA6700237B6043
:103CF400FB680022DA6397F96730012B1ED1FB6859
:103D0400DA6FFB689B6F9A4205D2FB68DA6F7B68B7
:103D14001A44FB68DA67FB68DA6FFB689B6F9A42A8
:103D240004D39C4BFB62FB6801221A75FB685B6839
:103D34001B69002B02D0042387F8673097F967309A
:103D4400012B40F0AB81FB685B680533082200213E
:103D5400184605F0F5FDFB681B7DDBB2123B122B08
:103D640000F2998101A252F823F000BFBD3D000882
:103D74009B4000083F3E00089B4000089B40000811
:103D84009B4000089B4000089B4000089B400008A3
:103D94009B4000089B4000089B4000089B40000893
:103DA4009B4000089B4000089B4000089B3E000885
:103DB4009B400008693F0008FB685B6860225A71F9
:103DC400FB681A8FFB685B68D2B29A71FB681B8F21
:103DD4001B0A9AB2FB685B68D2B2DA71FB685B6853
:103DE400FA6892F83A201A72FB680022DA67FB68D4
:103DF4001A68FB685B681946104602F0E9FCFB6828
:103E04005B6F002B06D0FB6800221A75002387F82D
:103E1400673043E1FB68002283F87020FB680022CE
:103E2400DA66FB680022C3F8A420FB680022C3F80A
:103E3400A820FB6813221A7530E1FB6893F8702000
:103E4400FB685B6842F02002D2B25A71FB6893F8B7
:103E54007030002B01D1102200E00022FB6883F8AF
:103E64007020FB680022DA67FB681A68FB685B68ED
:103E74001946104602F0ACFCFB685B6F002B06D0C1
:103E8400FB6800221A75002387F8673006E1FB6897
:103E940013221A7502E1FB689B6E002B24D0FB6889
:103EA4009B6E042B20D8FB689B6EDBB2C3F104032A
:103EB400DBB29B00DAB2FB685B6842F04302D2B229
:103EC4005A71FB685B6803F10900FB6803F1800128
:103ED400FB689B6E1A4605F0BEFDFB6800221A754E
:103EE400002387F8673020E0FB689B6E002B0ED020
:103EF400FB689B6EBB63BB6BBB61FB685B68412269
:103F04005A71FB685B680933BA691A6003E0FB689D
:103F14005B6840225A71FB68002283F87020FB68BA
:103F24000022DA67FB6823221A75FB681A8FFB6884
:103F34005B68D2B29A71FB681B8F1B0A9AB2FB684A
:103F44005B68D2B2DA71FB685B68FA6892F83A206F
:103F54001A72FB681A68FB685B681946104602F01F
:103F640037FC9BE007F12C0100230722F868FFF7D8
:103F7400F5FA0346002B00F09080FB685B68FA6852
:103F840092F870205A71FB6893F87030002B03D1BB
:103F9400102202E0000004050022FB6883F8702070
:103FA400FB68D3F8A420FB68D3F8A830D31ABB6508
:103FB400BB6D062B06D9FB685B6F002B1BD0BB6D5A
:103FC400072B18D1FB685B685A79BB6DDBB2C3F170
:103FD4000703DBB25B00DBB21343DAB2FB685B6856
:103FE40042F00102D2B25A71FB6800221A75002312
:103FF40087F8673007E0FB680022DA67FB68232252
:104004001A750723BB65FB685B68981DFB6803F1A1
:104014008002FB68D3F8A8301344BA6D194605F042
:104024001AFDFB68D3F8A820BB6D1A44FB68C3F8DB
:10403400A820FB68DA6EBB6D1A44FB68DA66FB687D
:104044009B6E002B1ED0FB68DA6EFB689B6E9A4257
:1040540005D9304BFB62FB6801221A751EE097F903
:104064006730002B0ED1FB68DA6EFB689B6E9A42B8
:1040740008D2294BFB62012387F86730FB680122D1
:104084001A750BE0FB681A68FB685B6819461046F2
:1040940002F09EFB02E000BF00E000BF97F967302A
:1040A400012B31D1FB681B7DDBB2012B2CD1FB6AC8
:1040B4007B61FB685B6880225A71FB681A8FFB681E
:1040C4005B68D2B29A71FB681B8F1B0A9AB2FB68B9
:1040D4005B68D2B2DA71FB685B68FA6892F83A20DE
:1040E4001A72FB685B6809337A691A60FB681A689C
:1040F400FB685B681946104602F06AFBFB68002205
:104104001A75F62387F8673097F9673018466C37C5
:10411400BD4690BD120007061300070680B485B0A3
:1041240000AF78607B681B78FB73FB7B1846143701
:10413400BD4680BC704780B485B000AF78607B68B2
:104144001B68FB60FB6818461437BD4680BC70478B
:1041540080B483B000AF78607B68002B02D07B68AA
:104164001B8800E0002318460C37BD4680BC70470E
:1041740080B483B000AF786039607B68002B01D1D4
:10418400052303E07B683A689A60002318460C37DD
:10419400BD4680BC704780B586B002AFF8607A60D7
:1041A4003B600B46FB72F97A3B68009301237A6803
:1041B400F868FDF729FC034618461037BD4680BD54
:1041C40080B586B002AFF8607A603B600B46FB7244
:1041D400F97A3B68009304237A68F868FDF714FCC5
:1041E400034618461037BD4680BD80B487B000AF83
:1041F400786039607B683B613B681B79FB73002303
:104204007B613B695B7C002B0CD1FB7B002B02D1D7
:1042140001237B6119E0FB7B43F04003DAB23B6985
:104224001A7212E0FB7B012B09D13B680533BB609A
:10423400BB681A783B699A7401237B6105E0FB7BB8
:1042440063F07F03DAB23B691A727B69002B0CD0EE
:104254003B69DB68002B0CBF01230023DBB21A4649
:104264003B69DA603B6901225A6000BF1C37BD46D6
:1042740080BC704790B58FB004AFF860B9607A60C5
:104284003B60FB68002B0CD0FB681B7D002B08D126
:10429400BB68002B05D07B68042B02D13B68002B44
:1042A40001D10923A2E0FB685B687B62B868FFF771
:1042B40042FF38623B6A9BB2C3F30A03FB833B6A47
:1042C40003F08043002B14BF01230023DBB2BB6146
:1042D4003A6A484B1340002B33D1FB8B7F2B30D9E8
:1042E400FB8BB3F5807F03D9FB8BB3F5C07F28D953
:1042F400FB8BB3F5B06F03D9FB8BB3F5C06F20D341
:10430400FB8BB3F5C06F03D9FB8BB3F5D06F18D318
:10431400FB8BB3F5DC6F03D3FB8BB3F5E06F10D3EA
:10432400FB8BB3F5E06F0CD87B6A5B6A002B0AD079
:10433400BB69002B07D07B6AB3F84830FA8B9A42EA
:1043440001D00F2352E07B6AB3F84830FA8B9A42CB
:1043540039D07B6A186B7B6A998EFA8B264B029351
:104364007B6A01930023009340F2FF7302F05AF931
:104374000346FB7597F91730002B01D0092335E06C
:104384007B6A986A7B6AB3F84A107B6A5B7C002B71
:1043940001D0012300E00023FA8B00240194009350
:1043A400002302F09BF902467B6ADA627B6ADB6ACD
:1043B400002B04D17B6A00225A62092316E07B6A2F
:1043C400FA8BA3F848207B6ABA695A62BB69002B4E
:1043D40005D07B6A00229A747B6A00229A613B684A
:1043E4007A68B968F868FDF70AF9034618462C3765
:1043F400BD4690BD00F8FFBFEF41000890B589B0FD
:1044040002AFF860B9607A603B60FB68002B0CD0A7
:10441400FB681B7D002B08D1BB68002B05D07B6893
:10442400012B02D13B68002B01D1092340E0FB683A
:104434005B687B61B868FFF771FE0346FB74FB7C25
:10444400012B02D0FB7CF02B01D90F2330E07B69D8
:10445400DB691B68002B01D0172329E07B69986A6C
:104464007B69B3F84A107B69B3F84820FB7C002BC6
:1044740001D0012300E000230024019400930023D1
:1044840002F02CF902467B69DA627B69DB6A002B55
:1044940004D17B6900225A62092309E07B69FA7C12
:1044A4005A743B687A68B968F868FDF7A8F8034657
:1044B40018461C37BD4690BD80B58CB004AFF8607B
:1044C400B9607A603B60FB68002B0ED0BB68002BA0
:1044D4000BD07B68002B08D03B68002B05D0BB6B4E
:1044E400002B02D03B6B002B02D14FF0FF33FDE0D9
:1044F4005C220021F86805F023FA8023BB6107F1F0
:104504001802012300217868FFF75AFE0346FB775F
:1045140097F91F30002B0CD03B6C002B06D0786829
:10452400FFF716FE03461A463B6C1A606FF00B0346
:10453400DCE0FB68FA689A63FB686E4ADA63FB683E
:104544006D4A1A64FB68383319467868FFF710FE21
:104554000023042200213868FDF7D0FA0246FB68E4
:10456400DA61FB68DB69002B0CD13B6C002B06D0B5
:104574003868FFF7EDFD03461A463B6C1A606FF08E
:104584000B03B3E0002304220021B86AFDF7B6FA56
:104594000246FB681A62BB6A002B10D0FB681B6AD8
:1045A400002B0CD13B6C002B06D0B86AFFF7D0FD72
:1045B40003461A463B6C1A606FF00B0396E0002327
:1045C400FB75FB6A002B33D007F11702012300218E
:1045D400F86AFFF7E0FD0346FB7797F91F30002BDD
:1045E4000CD03B6C002B06D0F86AFFF7B1FD0346F4
:1045F4001A463B6C1A606FF00B0377E0FB7D012BCE
:1046040002D10223FB7504E0FB7DF02B01D9F023DA
:10461400FB75FB68FA68DA64FB68364A1A65FB685E
:10462400364A5A65FB684C331946F86AFFF7A0FD11
:10463400FA7DFB685A74FB68BA681A60BB6903F0B8
:104644008043002B14BF01230023DBB21A46FB680E
:104654005A62FB68BA6B9A62BB699BB2C3F30A03E2
:104664009AB2FB68A3F84820FB683A6B1A63FB68AC
:10467400BA8E9A86FB68BA8FA3F84A20BB699BB2AC
:10468400C3F30A039AB2B98E1D4B0293FB680193DC
:104694000023009340F2FF73386B01F0C3FF03461D
:1046A400BB7797F91E30002B02D097F91E301DE01E
:1046B400BB699BB2C3F30A039AB2FB7D002B01D002
:1046C400012300E00023B98F002001900093002310
:1046D400B86B02F003F80246FB68DA62FB68DB6A37
:1046E400002B02D14FF0FF3300E00023184620379F
:1046F400BD4680BD531500087942000801440008F6
:10470400EF41000880B485B000AF78607B681B88F7
:104714009BB2FB81FB8918461437BD4680BC7047A9
:1047240080B485B000AF78607B681B68FB60FB6871
:1047340018461437BD4680BC704780B483B000AFC0
:1047440078607B68002B02D07B681B8800E0002324
:1047540018460C37BD4680BC704780B483B000AFA8
:10476400786039607B68002B01D1052303E07B6806
:104774003A689A60002318460C37BD4680BC7047DF
:1047840080B586B002AFF8607A603B600B46FB727E
:10479400F97A3B68009304237A68F868FDF734F9E2
:1047A400034618461037BD4680BD80B586B000AFBD
:1047B400786039607B687B613B681B79FB743B687C
:1047C4000533FB60FB7C062B08D17B690622F96864
:1047D400184605F040F97B6901229A6100BF183739
:1047E400BD4680BD80B588B000AFF860B9607A601E
:1047F4003B60FB68002B0CD0FB681B7D002B08D1B1
:10480400BB68002B05D07B68042B02D13B68002BCE
:1048140001D1092351E0FB685B68FB61B868FFF7CD
:104824007FFFB861BB699BB2C3F30A03FB82BA6919
:10483400244B1340002B26D1FB8A7F2B23D9FB8AE0
:10484400B3F5807F03D9FB8AB3F5C07F1BD9FB8AFC
:10485400B3F5B06F03D9FB8AB3F5C06F13D3FB8AEA
:10486400B3F5C06F03D9FB8AB3F5D06F0BD3FB8AC2
:10487400B3F5DC6F03D3FB8AB3F5E06F03D3FB8A94
:10488400B3F5E06F01D90F2317E0BB69DB0FDBB28F
:104894001A46FB691A61BB6903F08043002B14BFFD
:1048A40001230023DBB21A46FB695A613B687A682C
:1048B400B968F868FCF7A3FE034618462037BD46DE
:1048C40080BD00BF00F8FF3F80B58CB004AFF86036
:1048D400B9607A607B80FB68002B05D0BB68002B35
:1048E40002D07B68002B02D14FF0FF3361E02C2211
:1048F4000021F86805F024F807F1140201230021CF
:10490400B868FFF73DFF0346FB7797F91F30002B8C
:104914000CD0BB6A002B06D0B868FFF70EFF034625
:104924001A46BB6A1A606FF00B0342E0FB68FA6830
:10493400DA61FB68214A1A62FB68214A5A62FB6801
:104944001C331946B868FFF708FF7B699BB2C3F3B1
:104954000A03BB837B69DB0FDBB21A46FB681A616F
:104964007B6903F08043002B14BF01230023DBB2D7
:104974001A46FB685A61FB6800229A61FB681B694E
:10498400002B15D0BA8B79880E4B0293FB680193E8
:104994000023009340F2FF73786801F043FE03465E
:1049A400FB7697F91B30002B02D097F91B3000E0FF
:1049B400002318462037BD4680BD00BF53150008AC
:1049C400E9470008AF47000880B58AB000AFF86037
:1049D400B9607A6000237B62BB68002B24D0FB683B
:1049E4001B69002B20D0FB689B69002B1FD0FB6840
:1049F4001846FFF795FE3862FB6804331846FFF744
:104A040081FE0346FB833B6A23F07042FB689A6095
:104A1400FB68FA8B9A81FB680022DA8101237B62AE
:104A2400FB6800229A6102E0FB6800229A6100237D
:104A3400BB617B6A002B32D17B68002B2FD0FB68D3
:104A4400DB891A467B6813447B617B69164AA2FBA7
:104A540003239B09BB617A69134BA3FB02139B09D4
:104A64004FF47A7101FB03F3D31A9AB2FB68DA812B
:104A7400FB689A68BB691A44FB689A60FB689B6888
:104A84000A4A93420BD9FB689A68094B1344FA68A3
:104A94009360FB689B8901339AB2FB689A817B6AB5
:104AA40018462837BD4680BDD34D6210FF5B2605EE
:104AB40000A4D9FA80B584B000AF78600023FB73FA
:104AC4007B68002B02D14FF0FF3306E00C2200215B
:104AD400786804F035FF97F90F3018461037BD4653
:104AE40080BD000080B489B000AFF860B9603B605D
:104AF4001346FB710023FB770023BB770023BB61C4
:104B0400FB681A68BB681A44FB681A6012E1FB6808
:104B14005B7A03F00103002B0CBF01230023DBB2FB
:104B24003B610123BB61FB681B68A3F54343503B16
:104B3400FA681360FB681B790133DAB2FB681A71F7
:104B4400FB681B79032B40F2DD80FB6800221A719D
:104B54000023FB770023BB77FB685B7A03F0020337
:104B6400002B04D1FB7F43F00203FB7703E0BB7F00
:104B740043F00203BB77FB685B790133DAB2FB686D
:104B84005A71FB685B79062B10D0062B12DC012BC3
:104B940002D0022B05D00DE0FB7F43F00403FB772A
:104BA40009E0BB7F43F00403BB7704E0FB68002209
:104BB4005A7100E000BFFB689B790133DAB2FB68ED
:104BC4009A71FB689B79013B072B21D801A252F80B
:104BD40023F000BFF94B0008034C0008F94B000810
:104BE400034C0008154C0008154C0008154C00082F
:104BF4000D4C0008FB7F43F00803FB7709E0BB7F03
:104C040043F00803BB7704E0FB6800229A7100E0DC
:104C140000BFFB68DB790133DAB2FB68DA71FB6849
:104C2400DB790A2B8CBF01220022D2B2002A2CD1BC
:104C3400012202FA03F303F05402002A14BF0122F2
:104C44000022D2B2002A17D103F02A02002A14BF8C
:104C540001220022D2B2002A09D103F48063002B7E
:104C640014BF01230023DBB2002B0AD10DE0FB7F2C
:104C740043F01003FB7709E0BB7F43F01003BB77DD
:104C840004E0FB680022DA7100E000BFFB681B7AD5
:104C94000133DAB2FB681A72FB681B7A0C2B8CBFE7
:104CA40001220022D2B2002A37D1012202FA03F3F0
:104CB40003F4AA72002A14BF01220022D2B2002AED
:104CC40017D103F0AA02002A14BF01220022D2B293
:104CD400002A09D103F48053002B14BF01230023BD
:104CE400DBB2002B0AD118E0FB7F43F02003FB77F3
:104CF40014E0BB7F43F02003BB770FE0FB68002286
:104D04001A720BE0FB685B7A03F07E03FB77FB68A7
:104D14009B7A03F07E03BB7700E000BF3B69002B66
:104D240004D0FB7F43F00103FB7703E0BB7F43F038
:104D34000103BB77FB681B684CF24F3293423FF68A
:104D4400E6AEBB69002B77D0BB6A002B02D00123EF
:104D5400FB7532E097F90730002B04D1FB7F03F099
:104D64000103FB7529E03B6B002B04D0FB7F03F0B0
:104D74002003FB7521E07B6B002B04D0FB7F03F049
:104D84001003FB7519E0BB6B002B04D0FB7F03F011
:104D94000803FB7511E0FB6A002B04D0FB7F03F0D2
:104DA4000403FB7509E0FB6B002B04D0FB7F03F0CD
:104DB4000203FB7501E00023FB753B68002B04D064
:104DC400BB7F03F00103BB7522E03B6C002B04D0D6
:104DD400BB7F03F01003BB751AE097F90730042B6F
:104DE40004D1BB7F03F00403BB7511E097F90730CE
:104DF4007F2B04D1BB7F03F00203BB7508E097F956
:104E04000730052B02D10123BB7501E00023BB75DC
:104E1400FB7D002B03D0FB7F63F07F03FB77BB7D1F
:104E2400002B03D0BB7F63F07F03BB77FB68FA7F63
:104E34005A72FB68BA7F9A7200BF2437BD4680BCA1
:104E4400704700BF80B590B000AF786039607B6870
:104E54007B633B681B7987F8333097F83330082B32
:104E640040F04F817B6B5B6C002B40F04A81002348
:104E7400FB633B680533FB62FB6A1B7887F82B30C6
:104E840097F82B30042B2DD1FB6A01331B78FB7769
:104E9400FB7F002B02D0012B20D02CE17B6B1B7CF1
:104EA400012B10D17B6B93F84030FF2B0BD17B6B24
:104EB400DB6B1B78FF2B06D07B6B97F82B2083F8DA
:104EC40048200123FB637B6B00221A747B6B143331
:104ED40010220021184604F033FD0CE17B6B012203
:104EE4001A7408E17B6B1B7C002B40F0F08097F870
:104EF4002B30403B112B00F2F98001A252F823F031
:104F04004D4F00085D4F00086D4F00087D4F0008AD
:104F1400F1500008F1500008F1500008F150000869
:104F2400F1500008F1500008F1500008F150000859
:104F3400F1500008F1500008F1500008F150000849
:104F4400F1500008D94F0008FB6A01331B68BB61AC
:104F5400BA697B6B5A61CEE0FB6A01331B687B61E3
:104F64007A697B6B9A61C6E0FB6A01331B683B611B
:104F74003A697B6BDA61BEE0FB6A01331B68FB6054
:104F8400FA687B6B1A627B6B5A687B6B9B699A42EB
:104F940040F0AE807B6B9A687B6BDB699A4240F091
:104FA400A7807B6BDA687B6B1B6A9A4240F0A08017
:104FB4007B6B1A687B6B5B699A4240F099807B6BD0
:104FC40001221A747B6B97F82B2083F84820012365
:104FD400FB638DE07B6BDB6B1B78FF2B40F08A80DF
:104FE4007B6B93F84030FF2B40F08480FB6A0533E1
:104FF4001B7887F82A30FB6A06331B7887F8293038
:10500400FB6A07331B7887F8283097F82A301F2B60
:1050140003D997F82A30802B6DD197F82930032BC8
:1050240069D897F82830032B65D8FB6A01331B68CD
:10503400BB60BB687B620023BB6397F82A30802B7C
:105044000DD10123BB637B6B002283F834207B6B7F
:10505400243310220021184604F072FC2CE07B6BF0
:1050640093F8343097F829209A4225D197F82A30BA
:105074004FF0FF3202FA03F33B6297F829207B6B6F
:1050840053F822207B6A5A403B6A1340002B13D109
:105094000123BB637B6B97F8282083F8342097F8AF
:1050A4002A30002B08D197F8282097F829309A4203
:1050B40002D27B6B01221A74BB6B002B1AD07B6B60
:1050C40097F82B2083F848200123FB6312E07B6BC5
:1050D40049330822F96A184604F0BDFC7B6B97F843
:1050E4002B2083F848200123FB6304E000BF02E087
:1050F40000BF00E000BFFB6B002B02D07B6B0122E2
:105104005A6400BF4037BD4680BD00BF80B58AB039
:1051140004AFF860B9607A603B600023FB75FB68FC
:10512400002B18D07B68002B15D03B68002B12D0C5
:105134003B6A002B0FD0FB6A002B0CD03B681B781A
:10514400002B04D03B681B785BB2002B06DA3B686B
:105154001B78FF2B02D04FF0FF3346E0742200216E
:10516400F86804F0EDFBFB681022B968184604F0F7
:1051740072FCFB6800221A74FB68002283F8342056
:10518400FB687A689A63FB683A68DA633B681A7862
:10519400FB6883F84020FB6800225A643A8DB98C7E
:1051A400144B0293FB6801930023009340F2FF73B6
:1051B400386A01F037FA0346FB75FB68FA6ADA6667
:1051C400BA8E398E00230193082300930023F86AD2
:1051D40001F084FA0246FB681A67FB681B6F002B18
:1051E40001D1FF23FB7597F9173018461837BD46D0
:1051F40080BD00BF494E000880B58CB000AF786018
:105204000023FB627B685B6C002B00F002820023AE
:105214007B627B681B6F053308220021184604F06B
:105224008FFB7B6893F84830043B5A2B00F2DC81F7
:1052340001A252F823F000BFA9530008ED5500085D
:10524400ED550008ED550008ED550008ED55000832
:10525400ED550008ED550008ED550008ED55000822
:10526400ED550008ED550008ED550008BD53000844
:10527400ED5500080B540008ED550008A75400082C
:10528400ED550008E3540008ED550008ED550008FD
:10529400ED550008ED550008ED550008ED550008E2
:1052A400ED550008ED550008ED550008ED550008D2
:1052B400ED550008ED550008ED550008ED550008C2
:1052C400ED550008ED550008ED550008ED550008B2
:1052D400ED550008ED550008ED550008ED550008A2
:1052E400ED550008ED550008ED550008ED55000892
:1052F400ED550008ED550008ED550008ED55000882
:10530400ED550008ED550008ED550008ED55000871
:10531400ED550008ED550008ED550008ED55000861
:10532400ED550008ED550008ED550008ED55000851
:10533400ED550008AF530008ED550008ED55000881
:10534400ED550008ED550008ED550008ED55000831
:10535400ED550008ED550008ED550008ED55000821
:10536400ED550008ED550008ED550008DF5500081F
:10537400ED550008ED550008ED550008ED55000801
:10538400ED550008ED550008ED550008ED550008F1
:10539400395500085B5500087D5500089F550008E5
:1053A400C15500080123FB6225E17B681B6F442281
:1053B4005A7101237B621EE17B6893F84A30FB74C7
:1053C400002387F82B30FB7C002B03D097F9133094
:1053D400002B02DAFB7CFF2B04D17B68DB6BFA7CAD
:1053E4001A7002E0012387F82B307B681B6F7A6800
:1053F40092F848205A717B681B6F97F82B209A719A
:1054040001237B62F7E07B685B6D002B00F0EE808C
:105414007B6893F84A307B777B6893F84B303B7713
:10542400002387F82B30002387F82A307B7F002B5A
:1054340021D13B7F052B1ED03B7F092B1BD83B7F03
:10544400764A32F813307B837B685B6D7A68926DA1
:10545400798B1046984778617B69002B04D07B6870
:105464009B6B7A8B1A8009E0FF2387F82B3001238A
:1054740087F82A3002E0012387F82B307B681B6F02
:105484007A6892F848205A717B681B6F97F82B2032
:105494009A717B681B6F97F82A20DA7101237B626B
:1054A400A9E07B685B6D002B00F0A2807B68DB6D5C
:1054B400002B00F09F807B6893F84B301B02FB832A
:1054C4007B6893F84A301A46FB8B1343FB837B6853
:1054D400DB6D7A68126EF98B104698478AE00023D8
:1054E40087F82B307B685B6E002B03D1012387F890
:1054F4002B3011E07B685B6E7A68906E7A68D26BB1
:1055040011787A68926B1288984738623B6A002B4C
:1055140002D1022387F82B307B681B6F7A6892F8DC
:1055240048205A717B681B6F97F82B209A710123CE
:105534007B6260E07B681B6F7A6892F848205A713E
:105544007B681B68FB607B681B6F0633FA681A6014
:1055540001237B624FE07B681B6F7A6892F84820D6
:105564005A717B685B68FB607B681B6F0633FA6863
:105574001A6001237B623EE07B681B6F7A6892F8B5
:1055840048205A717B689B68FB607B681B6F0633FD
:10559400FA681A6001237B622DE07B681B6F7A68CE
:1055A40092F848205A717B68DB68FB607B681B6F4C
:1055B4000633FA681A6001237B621CE07B681B6F68
:1055C4007A6892F848205A717B681B6F7A6892F85F
:1055D40040209A7101237B620DE07B681B6F4F2290
:1055E4005A7101237B6206E000BF04E000BF02E0C1
:1055F40000BF00E000BF7B6A002B07D07B68DA6E37
:105604007B681B6F1946104601F0E2F87B680022A4
:105614005A64FB6A18463037BD4680BD14A400089E
:1056240080B485B000AF78600B46FB70FB78DB0874
:10563400FB73FB7803F00703012202FA03F3BB7345
:105644007B68002B0AD0FB7B092B07D8FB7B7A688D
:10565400D25CBB7B1340DBB2002B01D0012300E002
:10566400002318461437BD4680BC704780B483B00D
:1056740000AF78607B68002B07D07B68DB68002B69
:1056840003D07B68DB681B7800E0002318460C37E6
:10569400BD4680BC704780B483B000AF78607B683F
:1056A400002B03D07B6893F9003000E000231846F8
:1056B4000C37BD4680BC704780B483B000AF7860BF
:1056C4007B68002B02D07B681B7C00E0002318461B
:1056D4000C37BD4680BC704780B586B000AF78609B
:1056E40039600023FB6000237B6100233B61402180
:1056F400012003F073FD0346FB60FB68002B00F000
:1057040001813B6940333B612C21012003F066FD9C
:1057140003461A46FB681A61FB681B69002B00F0FC
:10572400F1803B692C333B610823FB72302101205B
:1057340003F054FD03461A46FB685A61FB685B6933
:10574400002B00F0DF803B6930333B61FB7A102192
:10575400184603F043FD03461A46FB689A61FB684A
:105764009B69002B00F0CE80FB7A1B013A6913443D
:105774003B615021012003F031FD03461A46FB68CA
:10578400DA61FB68DB69002B00F0BC803B695033B5
:105794003B611123BB72BB7A012B12D9BB7A08215E
:1057A400184603F01BFD03461A46FB681A62FB68A1
:1057B4001B6A002B00F0A680BB7ADB003A69134415
:1057C4003B61AC21012003F009FD03461A46FB6846
:1057D4005A62FB685B6A002B00F094803B69AC332F
:1057E4003B612C21012003F0F9FC03461A46FB68B7
:1057F4009A62FB689B6A002B00F084803B692C331F
:105804003B615C21012003F0E9FC03461A46FB6876
:10581400DA62FB68DB6A002B74D03B695C333B6162
:105824004FF4CA71042003F0D9FC03461A46FB68FE
:105834001A63FB681B6B002B64D03B6903F5CA63D6
:105844003B614FF4C671042003F0C8FC03461A46BA
:10585400FB685A63FB685B6B002B53D03B6903F511
:10586400C6633B610C21012003F0B8FC03461A46D1
:10587400FB689A63FB689B6B002B43D03B690C333A
:105884003B617421012003F0A9FC03461A46FB681E
:10589400DA63FB68DB6B002B34D03B6974333B6108
:1058A4003821012003F09AFC03461A46FB685A602B
:1058B400FB685B68002B25D03B6938333B610C21C6
:1058C400112003F08BFC03461A46FB689A60FB68C0
:1058D4009B68002B16D03B69CC333B61182109200F
:1058E40003F07CFC03461A46FB68DA60FB68DB685D
:1058F400002B07D03B69D8333B61FB6801221A6057
:10590400FB687B617B69002B02D1F86800F00BF81F
:105914003B68002B02D03B683A691A607B691846E1
:105924001837BD4680BD80B582B000AF78607B6813
:10593400002B53D07B685B68184600F05DFE7B68E3
:10594400DB68184603F066FC7B689B68184603F026
:1059540061FC7B685B68184603F05CFC7B68DB6B6E
:10596400184603F057FC7B689B6B184603F052FC07
:105974007B685B6B184603F04DFC7B681B6B184619
:1059840003F048FC7B68DB6A184603F043FC7B6841
:105994009B6A184603F03EFC7B685B6A184603F07A
:1059A40039FC7B68DB69184603F034FC7B681B6AAE
:1059B400184603F02FFC7B689B69184603F02AFC09
:1059C4007B685B69184603F025FC7B681B691846F5
:1059D40003F020FC786803F01DFC00E000BF0837EA
:1059E400BD4680BD80B58AB004AFF860B960134687
:1059F400FB80FB68002B02D14FF0FF331AE0FB68F9
:105A04005B6800225A61B86800F006FDFB685868BC
:105A1400FB689968FB68DB68FA88029209220192A4
:105A2400009311230A46B96800F01EFD0346FB7576
:105A340097F9173018461837BD4680BD80B58CB02D
:105A440006AFF860B9607A603B60FB68002B02D156
:105A54004FF0FF331AE0FB68D86BFB685B68FA68A9
:105A6400526840F2E471059108210491039240F2D6
:105A7400E57202921022019200937B683A68B96839
:105A8400FFF744FB0346FB7597F9173018461837A0
:105A9400BD4680BDF0B591B00AAFF860B9607A60D8
:105AA4003B60FB68002B02D14FF0FF332FE17B6892
:105AB400002B02D1FB68DB697B60FB6800221A6063
:105AC40097F84830FF2B03D1FB6801221A600AE0E3
